:400000000010002011000000510300005103000008B500F04DFA00F09DF90000F8B572B680220021D200444801F045F88022002442480021D20001F03EF8201C404AFF25E5
:40004000A75810323E1C111C4300AE433D4001334019D318420001328A18934206D0591E09781D7889190D700233F6E70434102CE4D1C022334B92041A6099220026324B18
:4000800080271A60314B324A1E60324B3F061E6099231B041360304A022117602F4A3C25136080222E4B92051A602E4A2E4B2F481A602F4A13780B4313700378AB43283D09
:4000C0002B430370162013782A4D034313708022294B40181A608022284BD2031A604022274B1A60C022274B52031A603122264B1960264B1A608022254BD20219602B6847
:4001000013432B6000F08CFE2A68224B13402B60214A224B1A602022214B1C60214B1A60214B224A1F60224B2E601A60214A224B1A60224B1E60F8BD00300F4000400F4059
:40014000D410000004000140100001400C00014000500F400803044004500F4010500F4018500F40100001002001054001700F4000700F4000010B400000044008000440EF
:400180000001044008010440000404400804044018040440FFFFFBFF0600008004010B40080202402002024008010B401000008000000240AF040080400002400C020B4003
:4001C00010B5064C2378002B07D1054B002B02D0044800E000BF0123237010BDF000002000000000D010000008B5084B002B03D00748084900E000BF07480368002B00D19B
:4002000008BD064B002BFBD09847F9E700000000D0100000F4000020D00000200000000010B562B600F0A4FC00280ED16524012000F0D6FD00F09CFC002806D1013CE4B2D4
:40024000002CF4D14022034B1A6000F083FC00F0D7FAFEE7C000002008B500F011FB00F045FB00F0ADFB08BD70B50D1C161C0024034BC9B21C8000F097FB3580201C70BD7F
:400280000C010020F0B50A26171C00245E4387B0039005912D4DB4421ADA00F019FB80B228802B88002B0DD002202C8800F098FD00F00EFB80B228802B88A4B2A342F3D800
:4002C000002306E00120013400F08AFDA4B2E1E70523002401933C802B88002B32D02E883B88B6B2F318059A9BB23B80934220D2A3199BB20293029B9C4209D0631C9BB276
:400300000493039B1C1900F0C9FA2070049CF2E772B62B889E1BB6B22E8062B6039B029A9B18013B1B78172B0AD0052000F058FD06E09E1B3E8000F0D9FA0523019301E0D6
:40034000029CC9E7019807B0F0BDC0460C010020FEE7000070B51049104B01394A1C15D000221E685C689D68A018AA4203D0B058A0500432F8E7021CDC68151AA54202D07D
:40038000002520C2F9E710330139E7E700F064FEFFF746FFFEE7C046010000005411000008B500239A000D49032B01D80C4989580C4801338150302BF4D1FFF72FFE002262
:4003C000094B1A60094B1A68002A00D11A6080220121D20513680B43136008BD510300000000000000000020C8000020C0000020004770B5051C0E1C141C002802D000200B
:4004000000F0E0FC0020002C05D0013CAB191B5DC018C0B2F7E770BD013808B509282AD8C901494200F004FE0507090B0D0F1614181B154B08E0154B12E0154B0DE0154BB1
:400440000EE0154B00E0154BC9180878C0B21AE0134B02E0134B00E0134BC9180FE0134BC9180A7848788B7800021B041843CB7810431B0606E0002000F0A4FC00210B7884
:4004800048780002184308BDC07F0000C17F0000C57F0000C97F0000D07F0000D17F0000D67F0000D27F0000D47F0000D87F00000C4B10B51A68102313400B4A00D11360A3
:4004C0001368802B0DD100240220211C1460FFF7A3FFA04205D0211C0220FFF79DFFFFF787FF10BD00030B40C0000020F8B5061C0320311CFFF790FF041C311C0420FFF7FF
:400500008BFF0134E401271800240320311CFFF783FF251C0130C001B84209D203785A1ED2B2FD2A00D801251C19E4B20130F3E70120311CFFF770FF6442E4B20623844254
:4005400003D16A4255416D422B40181CF8BD0000F0B5A34CA544FFF77FFE62B6002300930025962106AC03AE201C4900321CFF23FFF788FE0028F4D13188062900D889E0DE
:4005800022780423012A55D1E778A2783F021743E2195679B44616790196FE1D8E427ED89279172A46D1FB189BB2002B08D09CAA8C49D21852181278013B801880B2F3E74B
:4005C000634640421A02019B80B21A430823824230D166E0342B00D09CE0009B012B59D1032F57D151A80021802200F064FD8025172151AB581902ABED19FA1EC918ADB2FB
:4006000000F050FD832D47D1A079637900021843754B36021B6880191A6880B2D3099BB2520601D001339BB2984279D20123002500930933002101206370002302AA06326F
:400640002070081D1180A170E37080B29CAE654F3618F619367801389B1980B29BB20028F4D19CA8614E40185B4286199BB233705F4E1B0A861933705E4B0731C0181723BE
:4006800089B20370201C7F33FFF7EEFD69E7009B012B1BD00423CDE70123002500930323C8E763782679181C31380A2801D90523C0E700F0C7FCECFF1400FCFF8FFF3E00C4
:4006C000FCFF420053008FFF62008A00002FE1D1381CFFF70BFF43424341237172E0009B012BD7D1012FD5D1002ED3D13E4B1B681B68DA0BD2B2DB09DBB2002A01D08023AE
:400700005B0023711B0A6371FF23A37100230421E37190E7009B012BBCD1022FBAD967E751A900F041FA002880D10123051C009312E0009B012BADD112E7009B012BA9D13B
:400740002C33EE19FF339E42A9DC51AB581907A93A1C00F0A7FCB5B200236BE7002F99D104AB191C244A41CA41C107AA03CB03C20123082100933B1C5DE7009B012B89D1C2
:40078000032F87D1A37962791B021A43310251180192C90100208022FFF72BFE071C002E0ED1019BFF2B0BD1311C0520FFF734FE311C3F1A0620FFF72FFEFFB23F1AFFB24E
:4007C0007F4227710023012135E70020FFF78EFE002802D18022094B1A6000F0F5FA59E78CFDFFFFA7FDFFFFD4000020ACFDFFFFADFDFFFFAEFDFFFFF8100000C000002016
:4008000038B50020FFF772FE431E98410624134D40422B6804401A680020C03AC021FFF7E8FD6B681B78181AC0B2984203D12B681B68002B02D1002000F0C4FA084B196862
:400840001A1C402901D0002C03D000231360FFF77FFE80221A6000F0B7FA38BDD4000020C00000208021054A08B5136809060B4313600A2000F092FA08BDC04600000640CB
:4008800010B5054C2378002B03D100F0BBF801232370FFF7E7FF10BD10010020094B0A491A680B6800209A420AD00B685A1C403B581E83415B421A40044B985C0A60C0B22E
:4008C0007047C046B0010020280100206C010020044B1868044B1A681B68904200D24130C01A7047B001002028010020002030B580250B4A0B4B1468106019686D02294314
:4009000019601D68084929401960084B1968084B1960084B08491870084B1960146030BDC80F064004030640FFFFFEFF28010020B0010020AD010020ED0F0000C00F06402F
:40094000124A10B51368591C3F3B5C1EA3415B4219400F4B1C68A142FBD014681B689C4208D10C4B1C680F232340082B02D00A4B18600AE00224094BC0B21C60084B5854C3
:400980001160084A13682343136010BD24010020200100200802064040020640800F06402C010020880F064038B5041C4518AC4204D02078FFF7C4FF0134F8E738BD000070
:4009C000002310B580240A4A640211681360094B1868204318601C68074820401860074B1868074B186002239943116010BDC046880F064004020640FFFFFEFF2001002025
:400A00002401002010B51D4A00241D4B07201A6001221C4B1C491C601C4B1A601C4B0B601C4908601C4903300C601C490A601C4A13601C4B1C6000F0BBF90A20032100F0BC
:400A40008FF919490A2000F07FF90422174B1C60174B1C60174B1C60174B1C60174B1A60174B1C60174B1C60174B1C60174B1C70174B1C60174B1C6010BDC0460B0000025C
:400A8000000006404000064000030640480006400700008004030640100306404400064000020640040206404D0F0000880E0640C80E0640480F0640080F0640C80F0640DD
:400AC000880F0640B001002028010020AD0100202401002020010020842280210D4BD2041A601A6849020A431A600B490B4A0A6019681960C3210A4B890019600021094B6B
:400B00001960094B1C311960084B1A60084A094B1A60704700010540080105401027000024010540380105402801054014010540881300000C01054008B500F02BF8012124
:400B4000034A13680B43136000F028F808BDC0460000054010B5054C2378002B03D1FFF7BBFF01232370FFF7E7FF10BD18010020024B18680006C00F7047C046040004402C
:400B80000230800804D0C0460138FDD1C046C046C0467047EFF3108072B6704780F310887047C046C046C046F0B50024CDB008940994FF2800D9A5E0A14200D1A2E00AADBB
:400BC00003908022281C00F06DFA231C211C221C019498002858002802D01218014301930133202BF5D1002A05D1002900D08CE000910B1C01E00023009302937F23484FFB
:400C0000484C2AAE80222CA8291C2A972B9300F049FA2660444B454E336022680693120F059700230A2A02D022680F3313400893089F002F71D1FFF7ADFF3D4A3D4B11689B
:400C400009971960089B04900792002B13D13A4A03992A922A9A09040A432A922AAA2260364A32602268120F0A2A03D02D4B1A680F2313400893089F002F37D1009B002BEE
:400C800034D0281C391C802200F015FA019B029A0AA99B005A50059B2AAD2A937F232CA880226B6000F0FEF9069B2560336023681B0F0A2B03D01B4B1F680F231F40089735
:400CC000089B002B12D11E4A03992A922A9A080410431C4A2A90256032602268120F0A2A03D0104B1A680F2313400893099B002B04D1104A079912680A6009930498FFF7CA
:400D00004DFF0AE00423089307E0019B9B00E958EA5001230291009370E708984DB0F0BDB6D7000008000040040000800400004008010B401C010020B6D8000005000080F6
:400D4000B6D90000060000801F2800D901BE034B8000C318186819607047C0464000002038B5041C0D1E032D00D901BE1F2C00D901BEFFF70FFFA308074A9B009B1803226A
:400D8000144094400634A240A5401968914329431960FFF703FF38BD00E400E01F2318401E3B8340181C014B1860704700E100E01F2318401E3B8340181C014B1860704794
:400DC00080E100E001BE7047034A044913689BB20B4313607047C0460CED00E00400FA0510B5041C8022074B1202944205D91868FFF7C6FE044BE418F4E758686043FFF726
:400E0000BFFE10BDDC0000200080FFFF08B5034B1B7A5843FFF7B4FE08BDC046DC000020F0B5C31E87B002932D2B65D8344B1B78984204D8334B1D78334BEDB21EE0334BA9
:400E40001B78984204D8324B1D78324BEDB215E0314B1B78984204D8304B1D78304BEDB20CE0304B1B78984204D82F4B1D782F4BEDB203E02E4B1D782E4BEDB21C782E4E26
:400E8000029B0390F35CE4B20193FFF783FE019B04900596294F2F2B05D9039B2A2B02D919263E6008E03F233E681E40019BB34205D2224B019A1A600520FFF761FE1D4AD3
:400EC000039B944663441B781D4ADBB213601D4B05201D601C4B1C60FFF798FF019BB34206D9059B029A05209B5C3B60FFF748FE0498FFF753FE00E001BE07B0F0BDC046D4
:400F0000C0F1FF0FC1F1FF0FC2F1FF0FC3F1FF0FC4F1FF0FC5F1FF0FC6F1FF0FC7F1FF0FC8F1FF0FC9F1FF0FCAF1FF0FCBF1FF0FCCF1FF0FCDF1FF0F001100002CFF0B405D
:400F400028FF0B401CFF0B4020FF0B40274B10B51B68002B00D09847254B1B685B071DD5244B1B681B0716D0234B2448196803685A1C403B5C1EA3415B421A40204B1B6860
:400F80009A4203D120221F4B1A70E9E7CBB21E498B540260E4E704221C4B1A601C4B1B689B0721D51B4B1A680F231340082B18D0194B1A491A680B689A420DD00B685A1C1C
:400FC0003F3B581E83415B421A40154B15489B5CDBB203600A60E5E70221134A13688B4313600222114B1A6010BDC04614010020CC0F06400803064040030640B001002062
:4010000028010020AD0100206C010020C00F06408C0F06400802064024010020200100202C01002040020640880F0640800F064002B4714649084900095C49008E4402BC74
:401040007047C04603B47146490840004900095E49008E4403BC70470E4B70B500251E1C0D4CE41AA410A54204D0AB00F35898470135F8E700F05CF8084B00251E1C084C9C
:40108000E41AA410A54204D0AB00F35898470135F8E770BD3C1100003C1100003C11000044110000002310B5934203D0CC5CC4540133F9E710BD031C8218934202D01970D6
:4010C0000133FAE77047000000120000DA0000000000000001330F4003410F4004430F4002600F40E61062048E04D84018808C40C608E608020111019311C804111E0101FF
:40110000030405060708090A0B0C0E0F101112131415161718191B1C1D1E1F2021222325262728292A2B2E2F3031323334350000F8B5C046F8BC08BC9E467047E90100000F
:40114000A1030000F8B5C046F8BC08BC9E467047C101000068110000D000002020000000C80000000000000000000000C8100000CC1000000000E02EC05D000018000000FB
:4011800000366E010000000000000000000000000000000000000000000000000000000000000000000000000000000000000000000000000000000000000000000000008A
:4011C00000000000000000000000000000000000000000000000000000000000000000000000000000000000000000000000000000000000000000000000000000000000EF
:401200000010002011120000E9140000E914000008B5024B83F3088800F080F90010002038B50F4C23688022D20213432360182000F024FA22680B4B134023600A4A0B4BF0
:401240001A60063A0A4B1A60002525600920094900F0E0F9092000F0D1F9074B1D6038BD00010B40FFFFFBFF0600008004010B4008010B408D1800000C020B4010B572B6F7
:4012800001222B4B1A70002410E02A4863001A195200821891881B195B001A5AC31858880004104300F0A4F90134E4B2012CECD92049081C0C302C3100F080F9C022920088
:4012C0001D4B1A60EE2212021C4B1A6099231B041B4A1360802109061A4A1160C0218903194A1160194A13600522194B1A600132184B1A60184B1978043A0A431A7017483B
:4013000002783C218A4328390A430270197816220A431A708422124B1A60124A124B1A60D8221201114B1A60FFF77AFF10BDC0461C700F40D8220000000001400C00014011
:4013400000500F4004500F4008500F4030500F402000004000800F4000700F4001700F400000044080014000080004400803044010B5064C2378002B07D1054B002B02D065
:40138000044800E000BF0123237010BD50010020000000002C1F000008B5084B002B03D00748084900E000BF07480368002B00D108BD064B002BFBD09847F9E70000000034
:4013C0002C1F000054010020D00000200000000010B5002407E0A200184BD0580021184A00F06CFB01346B2CF5DD00F045FB0028FBD0012000F00AFB00F03EFB0028FBD073
:40140000FA2000F019F9002407E0A2000B4BD0580021002200F052FB01346B2CF5DD00F02BFB0028FBD0012000F0F0FA00F024FB0028FBD0034800F0FFF810BD301F0000F3
:4014400022222200EE02000010B500F085FB042000F046FB214B186E00F01CFB62B600F08BFC00F009FB0028FBD000240BE0A3001B4AD318186B90235B00184AD2580021DD
:4014800000F01CFB01347A2CF1DD00240BE0A300144AD318D869BC235B00104AD258002100F00CFB0134022CF1DD0C4B5A68E920002100F003FB00F0DFFA0028FBD001202B
:4014C00000F0A4FAFA20800000F0B6F8FFF780FFFA20C00000F0B0F8EDE7C046E0240000B0200000B0220000FEE7C04608B5031C084A1068C318084A9A1A802A02DC054A76
:40150000136005E000F004FC0C2303600120404208BDC046D40000207005002070B50F4E0F4D13E029686B68AC68002202E001C901C30432A242FAD1E868002202E00021A5
:4015400002C304328242FAD11035013E002EE9D100F0E4FBFFF778FFFEE7C04601000000C828000008B500230AE0032B03D89A000D49505800E00D4899000D4A88500133C1
:401580002F2BF2D9FFF77AFE00220A4B1A600A4B1B68002B01D1084B1A608022D205116801230B43136008BD00120000E914000000000020C8000020C0000020F0B50025A8
:4015C000002711E0BB00C658F3B2FF22964308E06A008A181478A419527822700135013BDBB2002BF4D10137072FEBD9F0BDC04608B50A1C002100F0B7FB08BD1F231840E9
:401600001E3B8340181C014B1860704700E100E001BE704738B5041C0D1C1F2802D90020FFF7F6FFA400034B9C4664442068256038BDC0464000002010B5041C06E0084B43
:40164000186800F051FB074B9C46644480231B029C42F4D8024B5868604300F045FB10BDD80000200080FFFF08B5034B1B7A584300F03AFB08BDC046D8000020F0B55746E0
:401680004E46C0B483B0041C00F038FB0190E71E2D2F74D83F4B1B78DBB2A34208D33E4B1B78DBB29A463D4B1B78DBB2994631E03B4B1B78DBB2A34208D33A4B1B78DBB2D8
:4016C0009A46394B1B78DBB2994623E0374B1B78DBB2A34208D3364B1B78DBB29A46354B1B78DBB2994615E0334B1B78DBB2A34208D3324B1B78DBB29A46314B1B78DBB2B6
:40170000994607E02F4B1B78DBB29A462E4B1B78DBB299462D4BDE5D2F2E09D92A2C07D919222B4B1A60052000F0DEFA192503E0274B1D683F231D40AE4206D2234BDA5D6D
:40174000234B1A60052000F0CFFA1F4B9C4664442378DBB21F4A13601F4B52461A601F4B4A461A600520FFF77FFFAE420AD9174BDA5D174B1A60052000F0B6FA02E0002013
:40178000FFF746FF019800F0BDFA03B00CBC91469A46F0BDC0F1FF0FC1F1FF0FC2F1FF0FC3F1FF0FC4F1FF0FC5F1FF0FC6F1FF0FC7F1FF0FC8F1FF0FC9F1FF0FCAF1FF0F63
:4017C000CBF1FF0FCCF1FF0FCDF1FF0FB02400002CFF0B4028FF0B401CFF0B4020FF0B40034B1868C0231B02184000D00120704700010B4008B500F081FA044A1368C02110
:4018000009020B43136000F07DFA08BD00010B4010B500F073FA08490A68084B1A408024E40122430A600A6813408022120213430B6000F067FA10BD00010B40FF3FFFFF98
:4018400070B5061C00F05AFA041CFFF7C9FF002803D0FFF7DDFF012500E000250848331C0340084A106808490840184310601368012D01D1FFF7BEFF201C00F043FA70BD33
:401880000404040010020B40FBFBFBFF10B5244B1B685B0715D5234B1B685B070ED5224B9969042001401F4C22688A4322609A6982439A61DB68002B00D098470420FFF784
:4018C000BFFF174B1B685B0518D5164B1B685B0510D5154B99698022D2001140114802688A4302609969114A0A409A611B69002B00D098478020C000FFF7A2FF084B1B68E9
:401900005B030CD5074B1B685B0304D5064B5B69002B00D098478020C002FFF791FF10BD10020B40E80000206C010020FFFBFFFF114B1B68E92B1AD80F495A1C0A60EA22A5
:4019400048684243D3189B000C4A9B580C4A1268D3400C4A12681340D8B20B4A1070180AC0B210701B0C8B60DBB2137002E01122064B1A707047C04688010020A8010020A9
:40198000540500205005002042000F4071000F402122164B1A70164A536801335360002B1FD1DBB2134A1370114AEA239B0051684B4311495B5811490968CB401049096839
:4019C0000B40D8B20F490870180AC0B208701B0CD360DBB20B70012313600922034B1A7002E00122084B1A607047C04671000F408801002070000F40A80100205405002041
:401A00005005002042000F4058050020002804D00023114A5360114A13700F48EA239B00426853430E4A9B580E4A1268D3400E4A12681340D9B20D4A1170190AC9B2117002
:401A40001B0CDBB21370012303601922084B1A700022084B1A6070478801002070000F40A8010020540500205005002042000F4071000F4058050020044B1868002803D033
:401A80000022034B1A7001207047C0465805002071000F4010B500240BE0EA2363439B189B0005495850013200E00022E92AF4D90134002CF9D010BDA801002000280BDB63
:401AC000002909DBE92807DC002905DCEA23594308188000014BC2507047C046A801002002280FD002D8012805D020E0032810D0042815D01BE0114A114B1A600122114B06
:401B00001A601AE0104A0E4B1A6002220D4B1A6013E00E4A0A4B1A6003220A4B1A600CE00B4A074B1A600422064B1A6005E0094A034B1A600022034B1A6070477F7F7F00E4
:401B400050050020540500203F3F3F001F1F1F000F0F0F00FFFFFF0010B50322144B1A701A32144B1A70053A134B1A700A3A134B1A70134C012323700020FFF78BFF0023FF
:401B80002370002000F026F80020FFF7A9FF0D4B1B7D002B08D101220A4B1A750A4800F061F80A4800F090F80122094B1A6010BD91000F4041000F4021000F4031000F4028
:401BC00071000F408801002091190000311900005805002000280CD10C4A0D4B1A6005220C4B1A6002320C4B1A6019320B4B1A600BE0064A064B1A600522064B1A6002329A
:401C0000054B1A601932054B1A607047C0260000640500205C0500206805002060050020014B18647047C0460000002010B5041C00F064F8044A1368C0218B43A4011C43BA
:401C4000146000F05FF810BD00E400E00122014B1A60704700E100E00122014B1A60704780E100E010B5041CFFF7F6FF201CFFF7D7FF0320FFF7DAFFFFF7E8FF10BDC0465C
:401C8000014B98647047C0460000002010B5041C00F034F8044A1168044B0B40A4051C43146000F02FF810BD00E400E0FFFF3FFF0422014B1A60704700E100E00422014B67
:401CC0001A60704780E100E010B5041CFFF7F6FF201CFFF7D5FF0320FFF7D8FFFFF7E8FF10BDC046000000000230800804D0C0460138FDD1C046C046C0467047EFF3108026
:401D000072B6704780F310887047C046C046C046014B18687047C0464C0100200E4B70B500251E1C0D4CE41AA410A54204D0AB00F35898470135F8E700F0B4FD084B002554
:401D40001E1C084CE41AA410A54204D0AB00F35898470135F8E770BDB0280000B0280000B0280000B8280000031C8218934202D019700133FAE77047154B10B51C68A36B7D
:401D8000002B15D1182000F033F8124BA0630380114B01224380114B8380114BC380114B03810523438106338381002302614361A46B0D4A206961690C4B00F08DF80122C1
:401DC000002380185941206161614800400810BD4C0100200E330000CDABFFFF341200006DE6FFFFECDEFFFF2D7F954C2DF4515808B5034B011C186800F004F808BDC046B5
:401E00004C010020032370B5CC1C9C430834051C0C2C01D20C2405E0002C03DA0C2300202B6042E08C42F9D3204A1368101C191C002913D00A68121B0DD40B2A02D90A60BB
:401E40008B181FE08B4202D15A6802601BE04A685A600B1C17E00B1C4968E9E7144E3368002B03D1281C00F025F83060281C211C00F020F8031C421CD0D00322C61C96436C
:401E800086420AD11C60181C07210B301A1D8843821A0AD05142995007E0311A281C00F009F8431CBAD0331CECE770BDA4010020A001002038B50023064C051C081C236029
:401EC000FFF714FB431C03D12368002B00D02B6038BDC0466C050020F0B54F46464605042D0C2C1CC0B41704160C3F0C9946030C7C4375435F4373437D19260CAD199C4694
:401F0000AF4203D980235B029846C4444B465143434324042E0C240C2D0466442C1959188919201C0CBC90469946F0BD000000000400000005000000060000000900000000
:401F40000A0000000B0000000C0000000D0000000E0000000F00000010000000110000001B0000001C0000001D0000001E0000001F00000020000000210000002200000001
:401F800023000000240000002A0000002B0000002C0000002D0000002F00000030000000310000003200000034000000350000003600000037000000400000004100000013
:401FC0004200000043000000440000004600000047000000480000004E0000004F0000005000000051000000520000005300000054000000550000005B0000005C00000000
:402000005D0000005E0000005F00000060000000610000006500000066000000670000006C0000006D0000006E0000006F0000007000000071000000720000007300000017
:402040007400000075000000760000007D0000007E0000007F0000008000000081000000820000008300000084000000900000009100000092000000930000009400000023
:402080009500000096000000970000009B0000009C0000009D0000009E0000009F000000A0000000A1000000A7000000A8000000A9000000B2000000B3000000B4000000FB
:4020C000B5000000B6000000B9000000BA000000BD000000BE000000BF000000C00000000000000001000000020000000300000007000000080000001200000013000000CE
:402100001400000015000000160000001700000018000000190000001A00000025000000260000002700000028000000290000002E00000033000000380000003900000069
:402140003A0000003B0000003C0000003D0000003E0000003F00000045000000490000004A0000004B0000004C0000004D00000056000000570000005800000059000000DA
:402180005A00000062000000630000006400000068000000690000006A0000006B0000007700000078000000790000007A0000007B0000007C000000850000008600000012
:4021C0008700000088000000890000008A0000008B0000008C0000008D0000008E0000008F0000009700000098000000990000009A000000A2000000A3000000A4000000B1
:40220000A5000000A6000000AA000000AB000000AC000000AD000000AE000000AF000000B0000000B1000000B7000000B8000000BB000000BC000000C1000000C20000007E
:40224000C3000000C4000000C5000000C6000000C7000000C8000000C9000000CA000000CB000000CC000000CD000000CE000000CF000000D0000000D1000000D2000000B6
:40228000D3000000D4000000D5000000D6000000D7000000D8000000D9000000DA000000DB000000DC000000DD000000DE000000DF000000E0000000E1000000E200000076
:4022C000E3000000E4000000E5000000E6000000E7000000E800000000300F40000400400F40000404000F403C300F4028310F4031320F4030330F4008400F4003410F4023
:4023000002600F40011811182114310C00011E0120012401280130013E0158045B045F01800183018404850489028A108E4093019403950896389706980899069A269B0840
:40234000A241A902AB04AE40AF01B020B101B207B418B640B70EB808BE40BF01C035C612C705C81CC9FFCAFFCBFFCDA0D804D904DA04DB04DC99DD09DF01E040E140E2C069
:40238000E4C0E6C0000204400514068009400E2810A8160117011B011C401D3E1F40254027802E802F08361437013C083E013F2045084F8054045640575068A96E016F0160
:4023C00076098380C0F8C261C49ECA30CCE0CEE0D040D210002109020A490B200E210F57110412891390146D1612170818A419571A5A1B081E49224925A0275F28102A023A
:402400002D0130C0323833303407350F37C038203A023B884032460C47EB483449FF4AFF4BFF580459045A045B045C995D095F0162C0644065010410068107010D800E6894
:4024400016481E681F1024102580270A2E402F103610370A3C103F8044804520468047085680570A5C805F106605810282048B129A489B019E80A122A340A614A708AF4095
:40248000B301C0D0C2F0C450CA50CCE0CE30D060D630D8C0EA8054016F0273018301D620DA80DC20E280AF02B001EA1002011101030405060708090A0B0C0E0F101112138B
:4024C0001415161718191B1C1D1E1F2021222325262728292A2B2E2F3031323334350000FFFF0000FFCC0000FF990000FF330000FF000000B3006600990099006600B300A4
:402500003300CC001919B3000033990000409900006699000099990000CC990000E6660000FF000033FF000066FF000080FF000099FF0000B2FF0000CCFF0000E5FF000023
:4025400000000000000055000000AA000000FF0055000000550055005500AA005500FF00AA000000AA005500AA00AA00AA00FF00FF000000FF005500FF00AA00FF00FF006B
:4025800000550000005555000055AA000055FF0055550000555555005555AA005555FF00AA550000AA555500AA55AA00AA55FF00FF550000FF555500FF55AA00FF55FF00DB
:4025C00000AA000000AA550000AAAA0000AAFF0055AA000055AA550055AAAA0055AAFF00AAAA0000AAAA5500AAAAAA00AAAAFF00FFAA0000FFAA5500FFAAAA00FFAAFF004B
:4026000000FF000000FF550000FFAA0000FFFF0055FF000055FF550055FFAA0055FFFF00AAFF0000AAFF5500AAFFAA00AAFFFF00FFFF0000FFFF5500FFFFAA00FFFFFF00BA
:40264000FF800000FF008000FF00FF008000FF000080FF0000FF8000FF00000020202000000020000000001000000000000000000000000000000000000000000000000052
:402680000000FF000010F0000020E0000030D0000040C0000050B0000060A00000709000008080000090700000A0600000B0500000C0400000D0300000E0200000FF00001C
:4026C000000000000000005F00000007000700147F147F14242A7F2A12231308646236495522500005030000001C2241000041221C00082A1C2A0808083E0808005030007C
:40270000000808080808006060000020100804023E5149453E00427F400042615149462141454B311814127F1027454545393C4A49493001710905033649494936064949CB
:40274000291E003636000000563600000008142241141414141441221408000201510906324979413E7E1111117E7F494949363E414141227F4141221C7F494949417F099E
:402780000901013E414151327F0808087F00417F41002040413F017F081422417F404040407F0204027F7F0408107F3E4141413E7F090909063E4151215E7F0919294646B2
:4027C0004949493101017F01013F4040403F1F2040201F7F2018207F63140814630304780403615149454300007F4141020408102041417F0000040201020440404040406C
:40280000000102040020545454787F484444383844444420384444487F3854545418087E090102081454543C7F0804047800447D40002040443D00007F10284400417F4009
:40284000007C041804787C0804047838444444387C14141408081414187C7C080404084854545420043F4440203C4040207C1C2040201C3C4030403C44281028440C5050D5
:40288000503C4464544C44000836410000007F0000004136080008082A1C08081C2A080843000000F8B5C046F8BC08BC9E4670479913000065150000F8B5C046F8BC08BC6D
:4028C0009E46704771130000D8280000D0000020800000002004000000000000700500200000E02EC05D00001800000000366E01040404000000000000000000000000009C
:402900000000000000000000000000000000000000000000A028000000000000000000000000000000000000000000000000000000000000000000000000000000000000CF
:402940000000000000000000000000000000000000000000EC000020000000000000000000000000000000000000000000000000000000000000000000000000000000004B
:402980000000000000000000000000000000000000000000000000000000000000000000000000000000000000000000000000000000000000000000000000000000000017
:4029C00000000000000000000000000000000000000000000000000000000000000000000000000000000000000000000000000000000000000000000000000000000000D7
:402A00000000000000000000000000000000000000000000000000000000000000000000000000000000000000000000000000000000000000000000000000000000000096
:402A40000000000000000000000000000000000000000000000000000000000000000000000000000000000000000000000000000000000000000000000000000000000056
:407FC000471112000023000000801700000000000000010000000000000000000000000000000000000000000000000000000000000000000000000000000000000000005C
:0200000490303A
:02000000FC58AA
:0200000490402A
:20000000FFFFFFFF00000000000000000000000000000000000000000000000000000000E4
:0200000490501A
:0C000000000204C81193110004D40DEBA1
:0200000490600A
:0100000001FE
:00000001FF